:10200000008000200D690000F5680000F568000000
:1020100000000000000000000000000000000000C0
:10202000000000000000000000000000F568000053
:102030000000000000000000F56800006169000079
:10204000F5680000F5680000F568000085360000BE
:10205000E1650000F5680000F5680000F96800001F
:10206000F5680000F5680000F5680000D534000050
:10207000F56800009544000085440000F568000004
:10208000F5680000F5680000F5680000F5680000DC
:1020900000000000F5680000F5680000F568000029
:1020A000F5680000F5680000F5680000F5680000BC
:1020B0000000000010B5064C2378002B07D1054B1B
:1020C000002B02D0044800E000BF0123237010BDA4
:1020D0002002002000000000D8C80000044B10B50A
:1020E000002B03D00349044800E000BF10BDC046E8
:1020F0000000000024020020D8C800000020704723
:1021000010B503681268DC6909680023A04710BD98
:1021100010B504681B68E46912680968A04710BD1F
:1021200010B504681B68A46A12680968A04710BD4E
:1021300013B56B46DC1D036801221B6B2100984719
:10214000012801D1207816BD01204042FBE70200A2
:10215000FC32136AD269934202D0C018007E7047E5
:1021600001204042FBE710B500690368DB6898472F
:1021700010BD036810B51B690400984701230028AF
:1021800000D1237D180010BD036810B55B6B984724
:10219000431E9841C0B210BD054B10B503608A23A1
:1021A00004009B00C01804F039FA200010BDC0469E
:1021B000E8BC0000F7B51600150000900191002D55
:1021C0000ED08722009B92009B185F689B68DB1BE8
:1021D000002B01DC0133FF33013B002B02D1761BC6
:1021E0003000FEBD80225200D41BAC4200DD2C002A
:1021F0009C4200DD1C00009822002130FF30019934
:10220000C01907F017FC8722FF21009B92009A1843
:10221000E3190B405360019B2D1B1B190193CEE763
:1022200070B504000D00206803681B6998470028FA
:10223000F9D0206803685B699847A842F3D1012070
:1022400070BD1FB504003D211030FFF7E9FF216983
:102250000D2201A803F084FF01A804F042FB040052
:1022600001A804F0DBF9200004B010BD872370B58D
:102270009B00C4186568A6686B1CDBB202000020D6
:10228000B34206D02130FF30521911542038636018
:10229000FF3870BD1FB50400084901A804F006FA14
:1022A0008A239B00E01801A904F016FB040001A892
:1022B00004F0B4F9E043C00F04B010BD2CBF00001F
:1022C000F0B589B0039104004021100015001F00F3
:1022D00004F0C3F904F052FB0190002004F084FBE9
:1022E000206903681B699847002800DCB3E0206977
:1022F00003685B6998470028F2DBC1B2280004F04C
:102300008CFA002F0ED0390005A804F0CFF905A9EA
:10231000280004F0ADFA060005A804F07FF9002EAD
:1023200000D0A5E00E9B002B0ED0190005A804F0EC
:10233000BDF905A9280004F09BFA060005A804F0E1
:102340006DF9002E00D095E00F9B002B0ED01900E8
:1023500005A804F0ABF905A9280004F089FA0600E5
:1023600005A804F05BF9002E00D085E0109B002B3F
:102370000ED0190005A804F099F905A9280004F069
:1023800077FA060005A804F049F9002E00D075E0A0
:10239000119B002B0DD0190005A804F087F905A9A1
:1023A000280004F065FA060005A804F037F9002EAD
:1023B00066D1344905A804F079F905A9280004F08C
:1023C00057FA060005A804F029F9002E88D02E49F6
:1023D000280004F0DEF92C22216905A803F0C0FED4
:1023E00005A804F07EFA05A804F018F90D22216969
:1023F00005A803F0B5FE05A804F073FA26000290C4
:10240000103605A804F00AF90A213000FFF708FF8A
:1024100030000A21FFF704FF00262069029A0368B2
:102420001B69964200DB5BE798470028F5D02069DE
:1024300003685B69984721008446FF20FC31CA6924
:10244000531C0340086A834203D06046A2181076EA
:10245000CB610136E1E704F091FA019BC01A039BBE
:10246000984200D239E701204042C0B209B0F0BD25
:102470000120FAE70220F8E70320F6E70420F4E75A
:102480000520F2E73FBF00009AC40000F0B5160037
:102490001F0004000D0089B00B4905A804F006F9DF
:1024A000109B05AA03930F9B290002930E9B009794
:1024B000019320003300FFF703FF040005A804F098
:1024C000ADF8200009B0F0BD9AC400001FB50400AB
:1024D000206903681B69984700280AD00023054A31
:1024E0000293019300936421034B2000FFF7CEFF7A
:1024F000EEE71FBD34BF000027BF000030B5040069
:102500000D0085B01449006903F09EFA1349206953
:1025100003F09AFA0A222900206903F018FB1049F7
:10252000206903F091FA20690368DB68984700206E
:1025300004F05AFA0023FA21029301930093094A06
:10254000094B89002000FFF7A1FF013843425841A1
:10255000C0B205B030BDC046C2BF0000C5BF00005C
:10256000CABF000034BF000027BF000030B5040020
:102570000D0085B01449006903F066FA134920691B
:1025800003F062FA0A222900206903F0D0FA104908
:10259000206903F059FA20690368DB689847002036
:1025A00004F022FA0023FA21029301930093094ACE
:1025B000094B89002000FFF769FF01384342584169
:1025C000C0B205B030BDC046C2BF000038BF000079
:1025D000CABF000034BF000027BF000070B5094D1E
:1025E0000400280001F0FEFD2060280001F026FE16
:1025F000054904F0B9FF6060280001F0EBFEA0601F
:1026000070BDC046680200200000C842F7B51F4DEB
:102610001F49280003F018FA1E4F380001F0DFF8B8
:102620001D4C01222100380001F0FCF800280DD0DB
:102630002378282BF4D10721200001F069F9E379F0
:1026400083420AD01549280003F010FA21001448EB
:1026500001F065FA134B1870F7BD002612492800E7
:1026600003F0E7F9A15D1022280003F070FA731C53
:102670000193072E06D00D49280003F0DAF9019ED8
:10268000082EEBD1280003F0E9F9C9E7440C00203B
:10269000DEBD00002005002060020020E9BD000032
:1026A000B0020020340500205FBE000006BE00001E
:1026B00070B5144D280001F083FD002821D1124C83
:1026C0001249200003F0E6F91149200003F0BCF99B
:1026D000280001F0D5FE10220100200003F03FFA8F
:1026E0000C49200003F0B0F90B49200003F0ACF9CD
:1026F0000A49200003F0A8F90949200003F0A4F9D1
:10270000FEE770BD68020020440C002009BE0000F6
:1027100051BE000062BE0000A9BE0000D3BE000092
:10272000FDBE00000300FC3358689B68C01A01D549
:102730000130FF30704770B505002C0000201834C0
:1027400004F052F92000FFF7EDFF002802D1280025
:10275000FFF7BCFE2000FFF7E5FF70BDF0B50700F6
:102760001600150085B002910393002D08D03800A3
:10277000FFF7D8FF002806D1039B002BFCD1761B66
:10278000300005B0F0BD3B00FC339B680193802313
:10279000019A5B009C1AAC4200DD2C00844200DDF3
:1027A0000400019B2200F918029807F043F93A004F
:1027B000FF21019BFC32E3180B409360029B2D1B11
:1027C0001B190293D1E7F0B5060085B000200F0079
:1027D000039204F009F93000FFF778FE0025039B0F
:1027E0009D421CD25B1B01933300183318000293E7
:1027F000FFF798FF019B040083420AD900280AD002
:102800003900002322000298FFF7A8FF3F192D1975
:10281000E5E7019CF4E73000FFF758FEDFE728000A
:1028200005B0F0BD70B504000E0015000C4900693C
:1028300003F00AF93100206903F006F90A222900A1
:10284000206903F074F90749206903F0FDF8206955
:102850000368DB689847002004F0C6F870BDC046E6
:10286000C2BF0000CABF0000F0B505000F0085B070
:102870002249006903F0E8F82149286903F0E4F8E7
:102880000A223900286903F052F91E49286903F029
:10289000DBF8286900240368DB689847002004F00F
:1028A000A3F8FA21029401940094174B174A890067
:1028B0002800FFF7EBFD0600012802D1052F03D009
:1028C0000124200005B0F0BD2800FFF7E3FC00283C
:1028D000F6D032000E492800FFF7A4FFFA21029437
:1028E00001940094084B094A89002800FFF7CEFDA7
:1028F000013844424441E4B2E3E7C046C2BF0000AD
:1029000046BF0000CABF000027BF000034BF000060
:102910004DBF000070B5160004001D00006903F0F3
:1029200093F83100206903F08FF82900206903F043
:102930008BF870BD10B504000A00064B0649FFF77E
:10294000E9FF20690368DB689847002004F04CF831
:1029500010BDC046CABF0000C2BF0000F0B57E4C2B
:10296000D9B001227D492000FFF75CFF0025FA2144
:102970007B4E7C4A3300890002950195009520002A
:10298000FFF784FD06A8FFF729FE774801F03CF920
:10299000071C152004F018FA744905900FA803F0DD
:1029A00085FE0222391C0CA803F0FEFE0CA90FA81C
:1029B00003F03DFF6E4903F047FF0700022208992C
:1029C00012A803F0F1FE12A9380003F030FF6949A4
:1029D00003F03AFF07000222079915A803F0E4FE6E
:1029E00015A9380003F023FF634903F02DFF07000A
:1029F0000A22059918A803F078FE18A9380003F0F8
:102A000016FF010009A803F0B2FE18A803F006FEA5
:102A100015A803F003FE12A803F000FE0CA803F0B3
:102A2000FDFD0FA803F0FAFD0B9B9D4217D2290074
:102A300009A803F033FF514F017810220911380023
:102A400003F075F8290009A803F028FF0F23017887
:102A500010221940380003F06AF80135E4E74748CE
:102A600002F0FCFF00212000FFF748FDFA20800063
:102A700003F0BAFF892300259B00E550043BE55095
:102A800009A9200002F0D9FF80222900520018A8CD
:102A900006F0ECFF3A4F3800FFF744FE2B0002002F
:102AA00018A93800FFF75AFE07002000FFF7F2FBD5
:102AB0004023051E14D133492000FFF73BFFFA21C4
:102AC0003300029501950095264AC9002000FFF7C2
:102AD000DDFC2B00012803D12000FFF7B2FB03002F
:102AE0009F4233D82849206902F0AEFF2749206968
:102AF00002F0AAFF0A223900206903F02CF82449C9
:102B0000206902F0A1FF206900250368DB6898476F
:102B1000002003F069FF20693A00036818A95B6888
:102B20009847FA2102950195009533000D4A8900D6
:102B30002000FFF7ABFC012808D102950195009514
:102B40003300144A14492000FFF7A0FC09A803F041
:102B500065FD59B0F0BDC046E4020020CCBF0000C6
:102B600027BF000034BF0000B0020020C3BF000038
:102B7000D4BF0000D6BF0000CCC80000440C002029
:102B800004040020D8BF0000C2BF0000E0BF000066
:102B9000CABF0000E6BF000010270000F0B50C001F
:102BA0008BB0284906002000FFF7C4FE0023FA215D
:102BB000254F029301930093244A3B008900200093
:102BC000FFF764FC8A239B00E51801280BD10D2236
:102BD000216907A803F0C4FA07A9280003F0D1FD72
:102BE00007A803F01BFD1A492000FFF7A3FE0023EE
:102BF000FA21029301930093144A3B0089002000BC
:102C0000FFF744FC012816D1124907A803F04EFD36
:102C10000D22216904A803F0A3FA04A907A803F070
:102C200006FE0100280003F0F2FD04A803F0F6FC04
:102C300007A803F0F3FC2900300003F098FD3000F2
:102C40000BB0F0BDB1BF000027BF0000B7BF000050
:102C5000BCBF0000C8C800001FB50A490400FFF748
:102C600069FE0023084A0293019300930749084B29
:102C70002000FFF70BFC013843425841C0B204B0BA
:102C800010BDC0469ABF0000A0BF000060EA00006F
:102C900027BF000070B504000D0016000849006948
:102CA00002F0D2FE320029002000064BFFF732FE70
:102CB00020690368DB689847002003F095FE70BD2B
:102CC000C2BF0000CABF00001FB5040000200629D3
:102CD00019D8080004F0EEF904191B1D1F23210068
:102CE00010492000FFF7D6FF0023FA210293019339
:102CF00000930D4A0D4B89002000FFF7C7FB0138F8
:102D000043425841C0B204B010BD0949E9E709493E
:102D1000E7E70949E5E70949E3E70949E1E709493F
:102D2000DFE7C04659BF000034BF000027BF0000E6
:102D300062BF00006BBF000074BF00007EBF0000D8
:102D400088BF000090BF0000F0B5050087B00020EC
:102D500016000F00059303F047FE2B000024FC3300
:102D60001C62DC6121002800FFF700FC3A0003210F
:102D70002800FFF7A9FF320004212800FFF7A4FF75
:102D8000059A05212800FFF79FFF2800FFF764FF41
:102D90000C4928752800FFF7CDFDFA210294019413
:102DA0000094094B094AC9002800FFF76FFB01286E
:102DB00003D12800FFF745FA0400013C604260415E
:102DC00007B0F0BDABBF000027BF000034BF00005C
:102DD000F7B50400002017001E00019103F004FE67
:102DE00023000025FC331D62DD6101212000FFF777
:102DF000BDFB019A29002000FFF766FF3A00012180
:102E00002000FFF761FFAE4204D032000221200013
:102E1000FFF75AFF2000FFF71FFF2075FA20800000
:102E200003F0E2FD207DFEBD70B5284E284930003C
:102E300003F03CFC274D284C2A002100300004F010
:102E400031F9264E2649300003F030FC2A002100DB
:102E5000300004F027F9234E2349300003F026FC0C
:102E60002A002100300004F01DF900211F4800F065
:102E7000BDFC00211E4800F086FEFA221D4C920087
:102E8000A2601D4A002322601C4A63602261220066
:102E9000FC321362D36189229200A350043AA350FA
:102EA0001749184803F002FC03F068FD8D23164A09
:102EB0009B00E0500433E25014492A00200004F043
:102EC000F1F8134800F0DCFE70BDC0464802002057
:102ED00024BD0000000000201D66000054020020F8
:102EE0002DBD00003C0200204EBD0000200500204A
:102EF000B0020020E4020020E8BC0000F00900203D
:102F00009AC400000C050020E09304009921000001
:102F10006802002070B50E00962188B0C901040037
:102F2000274803F037F90121212003F0B7FF0021E2
:102F3000212003F0FFFF01211E2003F0AFFF01213C
:102F40001E2003F0F7FFC82003F04EFD00211E20D5
:102F500003F0F0FFC82003F047FD01211E2003F01D
:102F6000E9FF03F00BFD050003F008FD154B401BC6
:102F7000984223D814492000FFF7DCFC0023134AB1
:102F8000029301930093C821114B2000FFF77EFAB2
:102F900001280FD1633003F027FD210005A8FFF7BA
:102FA000FDFD05A803F03AFB31002000FFF75CFCB3
:102FB00008B070BD642003F017FDD5E70020F7E7E7
:102FC000F00900200F2700009AC4000034BF000061
:102FD00027BF000070B53D4D8EB005212800FFF7DA
:102FE00099FF3B4C002804D13A49200002F02CFD07
:102FF000FEE73949200002F027FD3849200002F0A1
:1030000023FD29000BA8FFF7C9FD0BA9200002F042
:1030100037FD0BA803F002FB3149200002F014FD3C
:10302000304908A803F042FB2F492800FFF782FC33
:103030000023FA210293019300932C4A2C4B890020
:103040002800FFF723FA01280BD10D2229690BA8CC
:1030500003F086F80BA908A803F093FB0BA803F074
:10306000DDFA08A9200002F00BFD08A803F0D6FA4B
:10307000204905A803F07BFB1F4908A803F077FB54
:103080001E490BA803F073FB104D0BAB08AA05A952
:103090002800FFF745F806000BA803F0BFFA08A8C0
:1030A00003F0BCFA05A803F0B9FA002E04D11449C4
:1030B000200002F0C9FCFEE700212800FFF71EFAFD
:1030C000FA20800003F090FC0EB070BDE4020020F6
:1030D000440C00206FBD000086BD00009BBD0000B9
:1030E000AFBD00009AC40000BFBD0000B7BF000024
:1030F00027BF000048020020540200203C020020AC
:10310000C8BD0000E12110B50A4C4902200001F0C1
:10311000E5FB200001F0E4FB0028FAD0FFF776FA87
:10312000FFF7C6FAFFF756FF0349200002F0B2FC92
:1031300010BDC046440C0020EBBF0000F8B50500F0
:103140000E0017000024BC4208D02B68315D1B68BC
:1031500028009847002801D00134F4E72000F8BD8A
:1031600070470300FC33196ADA69914203D01B6A85
:10317000C018007E704701204042FBE70300FC338B
:10318000D8691B6AC01A01D50130FF3070470000B2
:10319000F7B50193FA238026002504009B00836085
:1031A000124B760008330F0045602900009203603F
:1031B0003200183006F05AFC23002000FC33213086
:1031C000DD6132001D622900FF3006F04FFC8723CD
:1031D0009B00E3185D609D606B461B78276123753B
:1031E0006B461B79A57520006375FEBDF8BF000016
:1031F00070B5060018250C49006902F071FF3069AE
:1032000002F0E2FD2B000821307D084C4343E31817
:10321000595603F0D3FE0821707D45436419615669
:1032200003F0CCFE70BDC046A08601003CC000008B
:103230008A2300229B00C1540C3BC3185A609A6039
:10324000012383757047020010B5FC3253689468FF
:103250000133DBB29C4202D054680155536010BD6B
:10326000F7B500240500170001932000A24232D0D8
:103270002B00FC33DC611C620122286902F0E2FDB4
:103280000600A04226D02B0018330093286902F0D4
:1032900066FE013401000098FFF7D5FF2869BC42A3
:1032A0000CD002F03AFE002807D0286902F0AAFDEF
:1032B0000221286902F0B0FDE8E70600286902F063
:1032C00098FD019B002B07D0002E07D00321286911
:1032D00002F0A2FDE0B2FEBD002EFBD1013CF9E7F9
:1032E00010B50123FFF7BCFF10BD002210B5837D90
:1032F00093420DD087239B00C4186368A4680133F0
:10330000DBB2A34204D02130FF30FFF79CFF012243
:10331000100010BD0300FC3399685A68914206D032
:103320009A68805C9A680132D2B29A607047012034
:103330004042FBE700228A2370B59B00827505009E
:103340000E00C15C006902F07DFD002806D103215A
:10335000286902F061FD0224200070BD8723280047
:103360009B00EA18536894682130FF301C1B01D57C
:103370000134FF34002C0ED02C69FFF7CBFFC1B213
:10338000200002F0A1FD0028E8D10321286902F005
:1033900043FD0324E0E7002EDED00321286902F07C
:1033A0003BFDD9E710B50121FFF7C4FF10BD10B5F3
:1033B0001830FFF7AFFF10BD70B50400006902F0D0
:1033C000A3FD002814D0206902F0B5FD002810D01C
:1033D000206902F017FD0321206902F01DFD8C23F6
:1033E0009B00E558002D39D10023FC34E3612362B2
:1033F00070BD206902F0A9FD002809D0206902F003
:103400009FFD002804D0206902F0A4FD0028DFD031
:10341000206902F09AFD002826D1206902F086FD7D
:103420000028E5D0206902F095FD002837D08723D9
:103430009B00E218536892689B1A01D50133FF3351
:10344000FF21002B05D020002130FF30FFF762FF65
:10345000C1B2206902F04AFDA075C9E723682000C7
:103460001B699847A847BFE7206902F0CBFC206999
:10347000032102F0D1FC206902F06CFD0028B7D0D6
:10348000872300229B00E3185A609A600123A375EA
:103490008B239B00E3589342AAD09847A8E72200C9
:1034A000FC32D369126A0133DBB22069934206D140
:1034B00002F09FFC0321206902F0AEFC98E702F0C5
:1034C0004EFD010020001830FFF7BDFE206902F01C
:1034D00099FCEFE710B50248FFF76EFF10BDC0463C
:1034E0003805002010B50C230B2202490248FFF7D3
:1034F0004FFE10BD340C002038050020037D002B4A
:1035000004D14375837583610133037570477FB5BB
:10351000C36802AD04000E0002916A608B4203D1C1
:10352000028AAB889A4218D02000062229000C306B
:1035300006F080FA206802F024FC6B79227AE179A7
:1035400000932068002302F0A5FD2068297932004D
:1035500002F0E8FB206802F00AFC7FBD70B5182677
:103560000400FFF7CBFF3300082120790D4D4343C2
:10357000EB18595603F022FD33000821A07943438C
:10358000EB18595603F01AFD082160794643AD192E
:10359000695603F013FD044B200006CBFFF7B7FF7D
:1035A00070BDC0463CC00000A407002007B5437DA5
:1035B00000910192002B07D09A070AD5EFF31083F0
:1035C0005A425341837572B60099019AFFF79FFFE3
:1035D00007BDDB07F8D58369014A9BB29360F3E727
:1035E00000180040437D002B05D09A0704D5837D49
:1035F000002B00D062B67047DB07FCD58369024A16
:103600009BB2D360F7E7C0460018004010B50068D1
:1036100002F0C0FB10BD0000104A114B11491360AD
:10362000002353711371104A104811601049D36080
:103630009180092191710639537413741375D371F4
:1036400011720C4A10600C48D3609080252053748E
:10365000137413759071D37111727047A407002011
:1036600000093D00300C00206C0700203C0C0020BD
:103670000A080000880700202624000000230370A9
:1036800070470000044B10B51B68002B00D0984712
:103690000122024B1A7210BDAC070020001400403A
:1036A00010B50368426872B6536062B67D2020246C
:1036B0000138C0B200281DD021000139FDD1116AA6
:1036C0000B42F5D072B65361936062B6F0214901A6
:1036D0000139FDD172B68C215360C9000139FDD189
:1036E000106A034058425841C0B262B6CD235B0114
:1036F000013BFDD110BD0CC8C9070CD572B6A02185
:103700005A619A600139FDD19A6162B6DC239B004F
:10371000013BFDD1704772B682215A61C9009A609F
:103720000139FDD19A6162B65023F1E7036842681E
:1037300072B63021936053610139FDD1A0215360ED
:103740000139FDD1106A62B6D4229200013AFDD14E
:103750000340581E8341D8B27047F7B504000F00EC
:10376000082601250192290039404B1E994120006D
:10377000C9B26D00013EFFF7BEFFEDB2002EF2D1DF
:10378000019B002B06D172B6636822685A600CCC8C
:103790005A6162B6F7BDF8B5070008260025012476
:1037A0003800FFF7C3FF002800D025436400013E26
:1037B000E4B2002EF4D12800F8BD70B50C00002250
:1037C000552126000500FFF7C8FF083621780022A2
:1037D00028000134FFF7C1FFB442F7D170BD0023C8
:1037E00083748360C36003827047000070B50D006E
:1037F00004000021280003F051FB18216943074A07
:10380000531858680123834023608B56044ADB0118
:103810009B1863602000FFF7E2FF70BD3CC0000012
:1038200000440041F0B585B00391867C050014008A
:10383000002E03D1FFF734FF002804D10020A87424
:10384000288205B0F0BD002C2BD03200F0210127DA
:103850002800FFF782FF00233E0001930293280017
:10386000FFF764FF04002800FFF760FF012C1BD165
:10387000012833D1402EE1D96B461B7A2B74029B71
:10388000002B01D10133AB742B7A002BD6D000234F
:10389000EA18127A0399CA540133082BF8D101208F
:1038A000CFE72200EC21D2E7019BEB1884420DD137
:1038B0002C7CB4420ED91C7A3C40621E9441E4B286
:1038C000002C0BD10296082E00D86E741A7ABA43D7
:1038D0001A7209E0A41B62425441F0E70124019BE3
:1038E000EA18137A3B4313727F0021002800013647
:1038F000FFB2FFF700FFF6B2002F04D1019B0137A2
:103900000133DBB20193019B072BA8D9B2E700007A
:1039100030B5030041180F240020074A8B420AD01B
:103920001D78013368400500000925401018555DD9
:10393000007C6840F2E730BD1CC000000430C37F4B
:103940000A203F2B01D001D8013870470B205F2B94
:10395000FBD00130F9E770B505000C00FFF7A0FEC1
:10396000002810D0CC2C08D003D8552C0CD0002027
:1039700009E0EC2C01D0F02CF9D100222100280024
:10398000FFF7EBFE012070BD290028001731FFF77B
:1039900014FFF7E770B5050014001E00FFF7DBFF0A
:1039A000002814D04E2C0AD005D8442C09D0482C1D
:1039B00007D000200BE0B42C01D0BE2CF9D100229E
:1039C00000E0320028002100FFF7C7FE012070BD93
:1039D000F8B5040025000023BE2255211F3527001D
:1039E000FFF7D8FF2E0028372000FFF7D4FE2870FD
:1039F0000135BD42F8D130000821FFF789FF0834B6
:103A0000E37F181A43425841C0B2F8BD0300F7B52E
:103A100033331E780400002E58D1FFF79CFF002896
:103A200054D0350000962000FFF780FE019007007B
:103A30002000FFF77BFE019B002B06D0002804D05E
:103A40000023323423703000FEBDEB08E3181A0067
:103A500007219C46019B2A321843C0B229401278A4
:103A6000002824D1200032300078A8422AD02BD35D
:103A7000170001230F411F4026D0012063468840D4
:103A80002A3302431A70013539002000EDB2FFF7E6
:103A900032FE402DC7D16A462300127832331A70A5
:103AA000009B0126002BCED133342670CBE7019B3F
:103AB000002BE2D10120634688402A3382431A70EA
:103AC0000027E0E70127D8E70095F3E700266686A0
:103AD000B9E7F8B50E00F0210500FFF73CFF00281C
:103AE0001BD000242800FFF721FE07002800FFF765
:103AF0001DFE002F01D000280FD1E308F15C072341
:103B0000234019410123013419402800E4B2FFF792
:103B1000F2FD402CE6D1012000E00020F8BD70B598
:103B200004000D00FFF7D5FF002801D1002070BD73
:103B3000200008222900173005F07CFF2000FFF745
:103B400047FF0028F2D02000FFF7F8FE23002833BB
:103B50001870B422002355212000FFF71BFF20001E
:103B6000FFF7E4FD293420700120E0E710B5F021D3
:103B70000400FFF74BFF002804D0210020002A3169
:103B8000FFF7CDFF10BD10B50400FFF72FFE002397
:103B9000B4226386CC212000FFF7FCFE2000FFF753
:103BA000C5FD60752000FFF7E1FF00280AD0200066
:103BB000FFF7C4FE237D834200D22075A37D01332D
:103BC000A375EFE7200010BD10B50400002A05D052
:103BD0002000FFF7ABFD0028FAD010BD093908001E
:103BE0000329FAD803F066FA0206080B5E2002F0F9
:103BF000FBFEF2E7BC20FAE77820FF30F7E7014848
:103C0000F5E7C046EE02000070B5050029352B78B7
:103C100004005A4253415521DBB24422FFF7BAFE59
:103C2000013D6A7820002978FFF7CEFF2000FFF7DA
:103C3000CFFE2A78E37F0134E07F0A2A11D00B2AD5
:103C400011D0092A01D1023A93430002C01800B2F0
:103C500005F04AFC0022054B04F03AFE05F002FD97
:103C600070BD0322F0E70122EEE7C0460000B03F3E
:103C700010B50248FFF702FD10BDC046B007002096
:103C800001235B4243617047F8B51723C356050013
:103C90000F00013305D14068FFF7B8FC0400200095
:103CA000F8BD0726002417200021285603F042F90A
:103CB00001211520B1402856394003F03BF9172067
:103CC0000121285603F036F9162064002856E4B284
:103CD00003F05CF9002801D001231C43013EE2D22D
:103CE000DDE70000142373B5C35604000D00160071
:103CF000013311D1017A0068FFF79AFA2068290090
:103D000003681B6898472068310003681B68984760
:103D10002068FFF747FB73BD1723C356013308D153
:103D20006A460023537113710F49019A4068FFF7E7
:103D30003DFC14200021205603F0FCF87F212000D8
:103D40002940FFF7A1FF31002000FFF79DFF14205D
:103D50000121205603F0EEF81723E3560133DAD1A0
:103D60006068FFF73FFCD6E720A10700F7B5040025
:103D700025003F2608A8077809A80078403500905C
:103D80000AA800788901019028780640072031436D
:103D9000C9B2814302400A43382103408A43DB0011
:103DA0001343220044322B7013787E0119001F2325
:103DB00019400B003343260038213C361370009A1B
:103DC00033780240D2008B4313433A000199834376
:103DD00001400B4333700240F2212000FFF782FFC5
:103DE0003378200099065A07490F8900120EDB0923
:103DF0000A431A43F521FFF775FF2B782000990637
:103E00005A07490F8900120E9B090A431A43F421ED
:103E1000FFF768FFF7BD0000142337B5C356040051
:103E20000D00013317D1017A0068FFF701FA20680D
:103E3000290003681B6898472068FFF7B3FA217AC6
:103E400001222068FFF74CFA206803685B699847F5
:103E5000C5B228003EBD1723C356013308D16A46B8
:103E60000023537113711049019A4068FFF79EFBBC
:103E700014200021205603F05DF880212000294302
:103E8000FFF702FF00212000FFF7FEFE05001420CF
:103E90000121205603F04EF81723E3560133D8D101
:103EA0006068FFF79FFBD4E720A10700142337B514
:103EB000C35604000D0001331ED1017A0068FFF7DC
:103EC000B7F92068290003681B6898472068FFF746
:103ED00069FA217A02222068FFF702FA2068036853
:103EE0005B699847050020682D0203685B69984765
:103EF0000543ADB228003EBD1723C356013308D198
:103F00006A460023537113711349019A4068FFF701
:103F10004DFB14200021205603F00CF880212000D6
:103F20002943FFF7B1FE00212000FFF7ADFE00217D
:103F300005002000FFF7A8FE2D02054314200121F3
:103F4000205602F0F7FF1723E356ADB20133D1D16B
:103F50006068FFF747FBCDE720A1070010B5FFF72A
:103F6000A5FF40BA80B210BD142337B5C356040074
:103F70000D00013322D1017A0068FFF759F920685A
:103F8000290003681B6898472068FFF70BFA217A1D
:103F900003222068FFF7A4F9206803685B6998474B
:103FA0000502206803685B699847054320682D0275
:103FB00003685B699847054328003EBD1723C35635
:103FC000013308D16A460023537113711549019AD0
:103FD0004068FFF7EBFA14200021205602F0AAFFF8
:103FE000802120002943FFF74FFE00212000FFF72A
:103FF0004BFE002105022000FFF746FE002105438D
:104000002000FFF741FE2D02054314200121205618
:1040100002F090FF1723E3560133CDD16068FFF71C
:10402000E1FAC9E720A1070070B588210400FFF775
:1040300095FF8A2120832000FFF790FF8C21608369
:104040002000FFF78BFF8E21A0832000FFF786FF63
:104050009021E0832000FFF781FF9221208420003F
:10406000FFF77CFF942160842000FFF777FF962103
:10407000A0842000FFF772FF9821E0842000FFF762
:104080006DFF9A2120852000FFF768FF9C21608545
:104090002000FFF763FF9E21A0852000FFF75EFF51
:1040A000A121E0852000FFF7B7FE23003033187010
:1040B000E1212000FFF752FFE32160862000FFF797
:1040C000ABFE230034331870E4212000FFF7A4FE78
:1040D000E52105002000FFF79FFE0F232D0118406A
:1040E0002843E086E6212000FFF796FEE521050043
:1040F0002000FFF791FE2D01001105432587E721E0
:104100002000FFF789FE3A34207070BD10B5F3210E
:10411000FFF782FE0123184010BD30B504001420C3
:10412000205685B0431C1AD12068FFF761F8D021D2
:104130002000FFF771FE0023E06060283DD12000E1
:10414000B622E021FFF7CEFD9620400002F04CFCA5
:104150002000FFF7DBFF051E1FD06420F6E70121DA
:1041600002F0E8FE14200121205602F097FE1720ED
:104170002056431C03D16068FFF7F0F9D7E701210F
:1041800002F08CFE15200121205602F087FE162039
:104190000021205602F082FEC9E72000FFF744FF0D
:1041A0000522032113000092200002950195FFF7DC
:1041B000DDFD642002F018FC0123180005B030BDBD
:1041C000772310B50372064B04000360FFF7A5FFC9
:1041D000002804D1762320002372FFF79EFF10BD34
:1041E0003805002010B5FA210400FFF7BDFE80233A
:1041F0001B0498421BD0228B03129B1AC011520041
:104200005B43821A1A21605E1B1350431C21625EBD
:10421000C01253439B13C0180523206158438030BC
:10422000001203F0E5FB034903F09EF910BD0248BC
:10423000FCE7C0460000C8420000C07FF0B587B070
:104240000090FFF7CFFFF7210098FFF78DFE802346
:1042500001901B04984200D1B3E00127009B5A4E05
:104260001B697F420293029AD317B6185F4132004E
:104270003B003000390003F0FFF802900391009BEF
:1042800032002020185E3B00C11703F0F5F8030D43
:104290000D031D43009B04032220185E029A039B1A
:1042A000C11703F0E9F80B069C46020A60460B12A0
:1042B000024312196B4119008023100000221B02D7
:1042C00080185941009BDA8B002303F0D5F84B107E
:1042D0000493CB170593059A049B002013436ED0DB
:1042E000009B2820185E029A039BC11703F0C4F8B4
:1042F000009B04002620185E32003B000D00C11711
:1043000003F0BAF88C466646C10B73040B434204B3
:10431000A4185D41019B1F1180235B03DB1BDF178A
:104320005A08F90711430022D807009B2427DF5FB2
:10433000FB0012196B41801A9941244A002303F0B3
:104340009BF8049A059B03F073F8CB04440B1C43C1
:10435000009B06002E20185E4D130F0022002B003C
:10436000C11703F089F822002B0003F085F8CB0178
:10437000440E1C43009B32002C20185E4D163B005F
:10438000C11703F079F8A4197D41C20C4E033243E2
:10439000CB14A4185D412B06200A1843009B291258
:1043A0002A241C5FE617250F33012B4322018018B6
:1043B000594103F08BF8EE21890503F0E7F907B0C6
:1043C000F0BD0348FBE7C046000CFEFF350C0000C3
:1043D0000000C07F10B50400FFF704FFFD2120009E
:1043E000FFF764FD80231B02984242D02369224AD2
:1043F00080039A183621635E1B05C01A3821635E5C
:1044000080215343C901C31A5B1821003431087855
:10441000802150430902C012411820003A30007830
:10442000DB1340B250438022801248439203801233
:1044300082183221605E303450438022920180180D
:1044400080134343D81340432278C01150430011D6
:10445000181AC343DB171840C8235B05984200DDD8
:104460001800001303F0C4FAEA21890503F08EF95D
:1044700010BD0248FCE7C04600D4FEFF0000C07F2C
:10448000C068704710B5024801F0C3FF10BDC046B8
:10449000B407002010B5024801F0BBFF10BDC046B4
:1044A000F009002073B51749174801F0B1FB17490F
:1044B000174801F0ADFB1749174801F0A9FB174950
:1044C000174801F0A5FB174C1749200001F0A0FB8D
:1044D000164E1749300001F09BFB032501233100E4
:1044E000019300950D330D22124801F027FF0023A0
:1044F000009501931D221A3321000F4801F01EFF81
:1045000073BDC046000800422C0C0020000C004285
:10451000300C002000100042340C00200014004237
:10452000380C00203C0C002000180042400C0020F9
:10453000001C0042B4070020F00900200020704752
:1045400070B50F26CB1D013902003240D5B22C00C8
:1045500000093034092A00DD07341C70013B8B420E
:10456000F2D170BD10B50C000B4B1868FFF7E8FFD7
:1045700021000A4B08311868FFF7E2FF2100084BC1
:1045800010311868FFF7DCFF2100064B183118685E
:10459000FFF7D6FF202010BD0CA0800040A08000B7
:1045A00044A0800048A0800008B4024B9C4610380C
:1045B00008BC60476545000070473F20704713B551
:1045C0006B460268D9710733546819000122A0476D
:1045D00016BD000070B50A260B7892B06E44023307
:1045E00005000B703C220021300005F03FFA3948ED
:1045F00001AC0690384824210790062020776846B1
:10460000364AA1742281364A364BA281FD3AFF3ADE
:104610008018C177684623390630C177684607306D
:10462000C17702A8C1770720F277032608316944D1
:10463000C87703A9CE7710212B366E443170092636
:1046400021851F3169440E700CA9053E0E7033217F
:104650002380022369440B7006360DA90E7022498F
:104660003536A1863B216E44307010A86274E27723
:1046700002703D3269446A440B701370402100227D
:10468000E37023716371A37341336B442187197005
:104690005A702B7DC039A370A37263770133DBB2EC
:1046A000A3776A7D0B200D0068441543C577312040
:1046B000684403703A23501C6B4418704123023243
:1046C0000A436B441A7021004222084800F064FF3C
:1046D00012B070BD10010424020605240904000074
:1046E00001020000080B000007050000AC0C0020D0
:1046F00008B4024B9C46103808BC6047D545000002
:1047000070B5027D0B790C0000259A420BD10B7815
:104710004E78A12B09D1212E05D107221F4920480F
:1047200000F03AFF0135280070BD212BFBD1202E6F
:104730002BD1072219491A4800F070FE174B1A783E
:104740005978090211439A7812041143DA78120653
:104750000A439621C9008A421DD1DB79DB071AD4AE
:10476000FA2001F007FA00210D4801F021F8012597
:10477000232ED8D1E378A2781B021343094A0021E3
:104780000748136001F014F8CDE7222EEFD18A78A4
:10479000024BDA71D2E701F0F7F9E4E708000020F4
:1047A000AC0C00200400002008B4024B9C461038DA
:1047B00008BC60470147000010B5417D006A013127
:1047C00000F064FD034B1B6801335A1E9341181817
:1047D00010BDC0461000002010B5417D006A0231B6
:1047E00000F06AFD10BD10B5417D006A023100F095
:1047F00031FD10BD70B50D00417D04001300023184
:104800002A00006A00F01EFE002801D10123636027
:1048100070BD000010B5054C23685A1C04D1036814
:104820005B69984703002060180010BD100000204D
:10483000074A0300106810B5411C03D001235B42F6
:10484000136010BD597D186A013100F0ABFDF8E727
:10485000100000207047002070477047FA239B002B
:1048600010B583600F4B0022C3820300283383619D
:104870000D4B04004260C2611800443323610830CC
:10488000631D21622060DA778323A362813BE362A8
:104890008033236300F0C2F82100103100F092F859
:1048A000200010BD03020000E4C30000022110B587
:1048B000094B1A68437D5B01D318FF339C7A21436F
:1048C0009972437D0133DBB25B01D3180122FF33C0
:1048D000997A0A439A7210BD641100207047000053
:1048E00010B502F04BF8F423FF330024984207D9A7
:1048F000044B0A20DC79631E9C41E4B202F074F898
:10490000200010BD0800002010B502490248FFF742
:10491000A5FF10BDAC0C0020440C002070B50E00AB
:1049200000254468002C0BD0236831005B68200010
:104930009847002802DB2D18E468F3E701256D4253
:10494000280070BD70B50D004468002C08D02368A5
:1049500029009B6820009847002802D1E468F4E70A
:10496000200070BD70B50D0000264468002C09D0F1
:104970002368290020001B69984736182D18F6B2C5
:10498000E468F3E730002C7070BD70B50D0044682A
:10499000002C08D0236829001B68200098470028B5
:1049A00002D1E468F4E7200070BD70B50D004468E2
:1049B000002C06D023682000DB6829009847E468B3
:1049C000F6E770BDF0B58C79457803002A19002010
:1049D000072A1FDC5A68824216D159601A78C879B2
:1049E0000A7112184D711A7000220B4DD0B2844218
:1049F0000FD98F6858789600F759860001307751A3
:104A000001325870F2E70200D0680028FBD1D16073
:104A1000E4E70120F0BDC046840C00200121064AD5
:104A200010B5136805480B4004D18024640004804D
:104A30004360116010BDC046780C00207C0C002043
:104A4000704710B5040002F057F8200010BD0000B8
:104A5000F0B5822919D1C3B2294D5A01AA1891691A
:104A6000284C80010C40C0218905214391612649D1
:104A7000083340187021506128685B011A5C8A4332
:104A8000110030220A431A54F0BD0029FCD1C0267F
:104A9000C1B21B4C4B01E3189A681A4DB6052A4067
:104AA00032439A60194A800182185A600A00072727
:104AB000246808325201115DB9430F0001213943C6
:104AC00011559F6910493D4040182E439E61586121
:104AD0007020115D81430800102101431155996830
:104AE0000B48A21808408021490301439960996846
:104AF000890B89039960402311790B431371C3E734
:104B000064110020FFFFFF8FD80C0020980E0020BA
:104B1000FF3F00F0EFF3108303600123436072B6A0
:104B200070470368002B02D162B6BFF36F8F7047E6
:104B3000F7B50600FC36B3690400002B18D1B22784
:104B40007F00C55D6846FFF7E5FF019BEDB2013BC5
:104B500002D3E55DEDB2FAE768460193FFF7E1FFA6
:104B6000002D01D10020FEBD706E336EC01AFAE731
:104B70006846FFF7CFFFD8220025019B5200013B7A
:104B800002D3A55CEDB2FAE768460193FFF7C9FFCF
:104B9000002DE7D0D6235B00E058043BE358E5E75F
:104BA00010B54468FC3043690B48DBB25A01A218C7
:104BB000916808330840802149030143916091685E
:104BC0005B01890B890391602268D318402219790F
:104BD0000A431A7110BDC046FF3F00F0F7B505004B
:104BE000FC356B694268DBB21900040008311068BB
:104BF00049014118C979C90711D55B01D2189368D9
:104C00009B049B0C0CD12000FFF7CAFF63681A6855
:104C10006B69DBB208335B01D3187F22DA71F7BD11
:104C2000E969002923D16B66230001266933FF332C
:104C3000EE6168465360B227FFF76CFF7F00B22138
:104C4000019BFF31013B5A1C38D0D822E655520057
:104C5000A25C581ED2B26254625C8446002A04D11F
:104C600020000193FFF79CFFE9E76346EBE7D621BD
:104C7000490063500023EB6123001D33FF33536071
:104C80006846D826FFF746FF01277600B221019B30
:104C9000FF31013B5A1C11D0B222A7555200A25C31
:104CA000581ED2B26254625C8446002A04D12000AD
:104CB0000193FFF775FFE9E76346EBE76846019369
:104CC000FFF72FFFA2E7F7B5060068463400FFF7AD
:104CD00021FF0027FF22019BFC34013B0DD3E0683C
:104CE0002169884204DBE7682069D71B3F18F4E795
:104CF0002769E1687F1A013FEFE768460193FFF7F4
:104D000010FFA3696846002B52D1FFF703FFB221C1
:104D1000019B4900013B5A1C0CD0755C5A1EEDB238
:104D2000002D05D168460193FFF7FBFE2800FEBD6C
:104D30001300F0E7684601930025FFF7F2FEFF221B
:104D4000236EBD4214D0616E994211D9591CF318DB
:104D50002166FF33587FE36821690133C0B21340F5
:104D60008B4203D0E16871180872E3600135E7E710
:104D7000626E9A42DAD1002323660133A36168464A
:104D8000B224FFF7C7FE6400B2220021019BFF326C
:104D9000013B581CC6D03155B05C5F1E002805D0C1
:104DA000B15430000193FFF7FBFEEDE73B00F0E765
:104DB000FFF7B0FED821019B4900013B5A1C06D0E9
:104DC000755C5A1EEDB2002DACD01300F6E76846B4
:104DD0000193FFF7A6FED623D4225B0000259C4654
:104DE0005200B358BD4203D061467158994220D851
:104DF0006246B2589A4299D1D42200235200B3504D
:104E00006846A361D824FFF785FE6400B222002122
:104E1000019BFF32013B581C00D183E73155B05C48
:104E20005F1E002819D0B15430000193FFF7B8FE7F
:104E3000ECE7591CB150FF21F3186933FF331878A0
:104E4000E368C0B201330B4021698B4203D0E168B3
:104E500071180872E3600135C3E73B00DBE710B56A
:104E60000400FFF730FF2300FC331969DA68914230
:104E700003D01B69E418207A10BD01204042FBE7F3
:104E800010B50400FC34FFF71EFFE0682369C01A68
:104E900001D50130FF3010BDF0B585B00192009111
:104EA0000500FFF710FF02A8FFF734FE01200024E1
:104EB000FF26039B40425A1E531C1FD02B00FC337D
:104EC00001998C4218D2D9681F69C91B01D50131DB
:104ED000FF31002910D01969DF688C460100BC45FC
:104EE00006D019691F69691801373740097A1F61AF
:104EF000009F39550134E3E7013ADDE702A8039248
:104F0000FFF70FFE200005B0F0BD37B56B46DC1D86
:104F100000230D002370FFF781FD2100FFF7FEFC49
:104F20002B681818286020783EBD00002023F7B5B4
:104F3000414A0500D1690F200B43D36101223F494B
:104F40000B7813430B703E4B19788143197006217F
:104F50001C78214319703B490C7822430A701A7857
:104F600002401A70602219780A431A70364B374A89
:104F70005A805F78FF09FCD1354801F0F9FC012324
:104F8000344C354E2268300011780B431370802268
:104F90003900520004F06AFD22689378DB07FCD4E4
:104FA00056621F262D4B1B68590B980C9B013140F4
:104FB00030405B0FB14200D105211F2800D10238DB
:104FC000072B00D1043B31408901178D0191244901
:104FD00030400F40019939431185118D0700B143CD
:104FE000080038431085118D18031E4B0B407F219C
:104FF000034313851378C1200B40137004232268E8
:10500000800011780B430C211370226813898B43A5
:10501000154913810B581B021B0A0B5080230B6090
:1050200011787E3B0B431370012300212B700F4836
:10503000FFF754FCF7BDC04600040040584400414F
:105040003C44004159440041000C0040064000002F
:10505000C159000064110020681100202460800004
:105060003FF8FFFFFF8FFFFF00E100E0440C00204E
:105070000078002810D00121084B1B681A898A4348
:105080001A810822198B0A431A830422198B0A43B6
:105090001A830022024B1A607047C0466411002038
:1050A0005C11002010B50F4A93699B0B9B03936121
:1050B00013680222FF331A729879823A02439A7176
:1050C0001A7A9207FCD57F24074A2140937A080078
:1050D000A3431900802301439172917A5B420B43F1
:1050E000937210BD641100200050004110B50C00F7
:1050F000FFF794FC2100FFF748FC002804D1034A85
:1051000093699B0B9B03936110BDC0466411002003
:10511000F7B50D00832A19D1CBB2404C5A01A21821
:1051200091693F48AD010840C02189050143916163
:105130003C4920686D187021083355615B011A5C89
:105140008A43110040220A431A54F7BD022A5FD154
:10515000354B8A00D058002802D003685B69984715
:10516000DA20400001F0C4FC802204002B4E2F4BBB
:105170004660036052000021083004F077FC2200F2
:10518000B2210023FC324900D360556113611366DC
:105190009361D36153666354443163500431635067
:1051A00004316354B221FF316354FF202B000340CC
:1051B0005901019371188F68194BAD003B40C0270E
:1051C000BF051F438F600727019B366808335B01CB
:1051D000995DB9430F000321394399552300516963
:1051E000666801401D334901FF3371184B606368E5
:1051F00052691B68024052019B1801221B18997AC0
:1052000020000A439A72FFF7CBFC074BEC509CE757
:1052100011002800FFF71CFC97E7C046641100202E
:10522000FFFFFF8FD80C0020B00C002044C400000A
:1052300070B505000124064BA200D258002A06D002
:10524000210028000134FFF763FF0A2CF3D170BD61
:10525000840C00200B4BCAB20B488901C9185301BA
:10526000C318596199690832890B890399610368E8
:1052700052019A180223D3715179823B0B43537127
:105280007047C046D80C002064110020084B8A00EB
:10529000D05810B5002803D003689B68984710BD0C
:1052A000C9B2044B4901591888688004800CF6E79C
:1052B000B00C00206411002010B50C00FFF7E6FFD1
:1052C00000280CD0064BE4B21B68083464011C199A
:1052D000802362795B42134363710223E37110BD43
:1052E00064110020F0B51C002A4B85B01B68070034
:1052F0000D000292002B4AD0274B8A00D05800287C
:1053000008D0036822005B680299984704002000D7
:1053100005B0F0BD3800FFF7B9FF844204D9290079
:105320003800FFF7B3FF04000121EBB21B4E0393DB
:105330005B010193F21893689B0B9B039360019AA6
:10534000336802989B18FF335A7A0A435A72144BF7
:10535000A901C918220004F06DFB002CD7D0290048
:105360003800FFF793FF0028D1D14021039B32681A
:1053700008335B01D3181879014319710121D971E0
:10538000019BD318FF339A7A0A439A72BFE701242C
:105390006442BCE75C110020B00C002064110020C6
:1053A000980E002013B56B46DC1D22000123FFF789
:1053B00099FF012801D1207816BD01204042FBE76A
:1053C00070B5CBB2124A13485C01890189180219E1
:1053D00051609168104D08330D40802149032943E5
:1053E000402591609168890B8903916001685A0199
:1053F0008A1816793543157195796D06FCD55B01D0
:10540000C918CB79DB07FCD500198068C0B270BD24
:10541000980E002064110020FF3F00F070B50D00D1
:1054200000211400FFF7CCFFA04200D92000002388
:105430000349A34203D0CA5CEA540133F9E770BDC3
:10544000980E0020F0B51E003A4B85B01B680F0087
:105450000192002B35D08023DB019E4231D80025FC
:10546000354B8A01D3180293002E2CD0334B1B6886
:105470000393FF233B401C0000930834039B64010B
:105480001C19A379DB0921D02D4B2E49186801F096
:105490001BFE2D4B1721584301F016FE2B4BE279D2
:1054A000920713D4DA5D002A01D10138F7D2012224
:1054B000DA55009B5A01214B9B189A69920B920373
:1054C0009A6101256D42280005B0F0BD00221F4BF6
:1054D0003400DA553F2E09D9009B40245A01174B5E
:1054E0009B188022996912060A439A612200019949
:1054F000029804F09FFA009BA1045A010F4B890CFB
:105500009B18029A2D195A619A69361B920B9203C5
:105510000A439A61009B039A08335B01D318022265
:10552000DA715979823A0A435A71019B1B19019326
:105530009AE7C0465C110020D80C002064110020BE
:105540001800002040420F0070110100CD0C002017
:1055500070B50D001C000D4BAE01F61811003000A7
:10556000220004F067FAEDB209496D014D196E6130
:10557000AB69084A20001340AB61AB69A2049B0BE6
:10558000920C9B031343AB6170BDC046D80C002046
:1055900064110020FF3F00F0F7B5104B01901B781D
:1055A0000F001500002B0CD10D4B16001C78002CA1
:1055B00009D00C4E0C4834882018641904F03AFACB
:1055C00034802800FEBD002EFBD03A1933000021A4
:1055D0000198FFF7BDFF2418361AF4E75810002091
:1055E000591100205A11002059100020F8B50F0061
:1055F00016000024012A26D9100004F0F5F9050050
:10560000380004F08FFF032302220130400028708D
:105610006B7096420DD9397800290AD0531CDBB241
:105620000137A9549E4203D00232EC54D2B2F0E7C3
:10563000320029000548FFF7AFFF441EA041C4B265
:10564000280004F0DBF92000F8BDC046AC0C0020B7
:10565000F0B50024012685B0184B0F0069461E7076
:1056600005000094FFF751FC154B01A90B806A3B24
:10567000FF3BCB715A330B72009B8C7109334B800B
:105680000E4B4E7108711C703A00092F0FD00D4F50
:1056900009223E700C4E280000943480FFF77CFFF6
:1056A00069462800FFF731FC328808493C70280021
:1056B000FFF772FF012005B0F0BDC0465810002072
:1056C00009020000591100205A1100205910002031
:1056D00070B5CE7892B005000C00022E0BD18B79FC
:1056E000C9792E4809021943FFF7B2FF411E8841CC
:1056F000C0B212B070BDFFF791F92100FFF722F997
:10570000002803D0C117081AC00FF2E7012E0ED1EE
:10571000E279A37912021A432149112A3CD8D2B264
:10572000002A39D02800FFF737FF0120E1E7032ED8
:10573000DFD1A378002B28D0022B08D1E279A379FE
:10574000120218491A432800FFF750FFD1E7012B36
:1057500005D1E279A37912021A431349F3E7032B27
:10576000C7D10100412201A804F080F9FFF756F9E2
:1057700001A9FFF7F7F8002805D0E279A379120212
:105780001A4301A9DFE70378FFDEE279A379120269
:105790001A430649032AC2D90A78C3E7AC0C002091
:1057A00086C4000060C400007AC4000076C4000013
:1057B000CBB204495B01C9188B699B0B9B038B61BE
:1057C0007047C0466411002037B5050048780C00CA
:1057D0000B2810D801F06EFC061B0F2B0F40456103
:1057E000494C5A5D097801AA002906D1022311808B
:1057F0002800FFF7ADFE01203EBD00231380284B9B
:105800001B78012B00D1137002230021F0E78A7866
:105810000023012A03D101AA1380224BF0E7204A7A
:105820001370214A93699B0B9B039361E3E78C7888
:10583000012C06D100211B4B01AA1C701170230002
:10584000D6E70120002CD7D1154B174A1870936961
:105850009B0B9B039361CFE789782800FFF722FC1D
:10586000C9E72800FFF734FFC6E701230F4ACCE75A
:105870000B780020DB06BFD12800FFF7D9FCA27807
:105880000A4B0B481A60FFF711F8CAE70123094ACF
:10589000BBE78A78074B1A60C3E70020ACE7C04635
:1058A000CC0C0020D40C0020641100205C110020DE
:1058B000440C0020601100203B4BF7B51E7805001A
:1058C000002E5FD1394C23689A8B12070DD5082220
:1058D00031009A833000FFF7BBF810222368FF33B2
:1058E000997A0A439A72324B1E6023689A8B520748
:1058F00001D504229A83FF331A7A920603D5202217
:10590000597A0A435A721A7AD20623D56946080090
:10591000284AC0CAC0C0A268920B9203A26040226B
:10592000587902435A7160230A7828001A422AD112
:10593000FFF74AFF2368FF33002827D08022997998
:1059400052420A439A711A7A520603D54022597A72
:105950000A435A727F2601252368FF331E722F00E7
:10596000236808377F01DB19DB79002B07D0124B46
:10597000AA00D05800280DD003681B68984701354D
:10598000082DECD1F7BDFFF7B1FBD3E720210B4A7F
:105990009171D8E7FFF742F82900FFF706F823686E
:1059A000DF19FE71EBE7C046591100206411002099
:1059B0005C110020980E0020B00C0020FF50004128
:1059C00010B50248FFF778FF10BDC046AC0C0020B0
:1059D000014B024A1A6070476411002000500041D8
:1059E000F7B506000D000C008B180193019B671B97
:1059F0009C4207D0336821781B68300098470134F7
:105A00000028F3D13800FEBD70B5040008000D0079
:105A100004F088FD2368020029005B682000984795
:105A200070BD10B50B1E02D0FFF7EEFF030018008B
:105A300010BD10B5FFF7F5FF10BD10B503688A68FB
:105A40005B680968984710BD10B5FFF7EAFF10BD05
:105A500010B503681B68984710BD000010B50249D7
:105A6000FFF7D2FF10BDC04698C4000070B5040017
:105A7000FFF7D7FF05002000FFF7F0FF401970BDCA
:105A800070B50500FFF7D9FF04002800FFF7E6FF17
:105A9000201870BD70B50400FFF7C3FF050020009B
:105AA000FFF7DCFF401970BDF0B58BB06B461500F9
:105AB000002205330600DA770800012D00D80A25F8
:105AC00009AC290001F086FBCAB213003733070086
:105AD000DBB2092902D813003033DBB2013C23705A
:105AE000002FEED121003000FFF79BFF0BB0F0BD7F
:105AF000F8B506000C00151E04D10368C9B21B6876
:105B00009847F8BD0A2A0CD100290BDA2D21FFF79E
:105B10009FFF614207002A003000FFF7C5FF3818D9
:105B2000EFE7D2B221003000FFF7BEFFE9E710B582
:105B3000FFF7DEFF10BD10B5002A04D10368C9B21B
:105B40001B68984710BDD2B2FFF7AEFFFAE710B559
:105B5000FFF7F1FF10BD10B5FFF7EDFF10BD70B5F9
:105B60000500FFF7E8FF04002800FFF777FF201883
:105B700070BD000010B50400FEF76FFE014B1C6005
:105B800010BDC046140000200122024B52421A6090
:105B90007047C04614000020164A10B51368591CFF
:105BA00026D0013B1360002B22D172B6124B134A50
:105BB0000433934213D9124A01211000147D0C4280
:105BC000FCD02021148BFF319B085B002143118303
:105BD000D3610C4B13800123027D1A42FCD0BFF32A
:105BE0004F8F094B094ADA60BFF34F8FC046FDE77C
:105BF00010BDC04614000020002000000302000079
:105C00000040004102A5FFFF00ED00E00400FA059E
:105C1000016070479446F0B59E1E721E9641624622
:105C2000056892072F6836063A4332432A600725F3
:105C300005AC24780068A40129402143426800246F
:105C4000022B00D05C03114321434160F0BD30B50D
:105C5000C0250368AD031C6812052A402243C024F6
:105C60000904A40221401143196003685A681443CF
:105C70005C6030BD0123026811680B431360036848
:105C80001A68D207FCD4DA69D207F9D47047022324
:105C9000026811680B4313600268D3699B07FCD448
:105CA000704703681A7ED20702D41A7E9207FCD589
:105CB0007047002203685A8370470368187E4007C4
:105CC000C00F70470368187EC009704780230268C0
:105CD0005B42117E0B43137670470368588B800735
:105CE000C00F704702230268518B0B4353837047E8
:105CF0000368187EC007C00F70470368188DC0B2D4
:105D0000704703681A7ED207FCD589B20120198535
:105D10007047012203689A757047012203681A755B
:105D20007047000070B5012604684B0833403140CD
:105D3000256809075B070B432B4323600468510068
:105D4000034801F0C1F90138C0B2207370BDC046EC
:105D5000006CDC020123026811680B4313600368C6
:105D60001A68D207FCD4DA69D207F9D47047022343
:105D7000026811680B4313600268D3699B07FCD467
:105D800070470368DA699207FCD402211A688A43D3
:105D90001A6070470268936A5B0A5B02194391625A
:105DA00003681A7E5207FCD5986AC0B27047012377
:105DB000026811680B43136003681A68D207FCD4A9
:105DC000DA69D207F9D470470223026811680B43DD
:105DD00013600368DA699207FCD430215A8B8A4336
:105DE000110010220A435A830268D3695B07FCD46E
:105DF000704780230268DB02116851680B435360CF
:105E000070470000036803491A685A680A405A60DC
:105E10007047C046FFFFFBFF032230B50368114007
:105E20001C68074D5A6809042A40E4061143640FB0
:105E30005960052C03D10268D3695B07FCD430BDDF
:105E4000FFFFFCFF70B5056804006B8B9B069B0F82
:105E5000022B0DD06B8B00209B069B0F032B32D0A7
:105E60006B8B9B0704D56B8B9B069B0F012B2AD159
:105E70006B6A49001143DB0AC9B2DB020B436B6258
:105E80002368002A13D11A7ED207FCD55B8B9B06B0
:105E90009B0F022B04D0490800222000FFF7D2FFFD
:105EA0002368588B4007C30F012058400BE0187E31
:105EB0008007C00FF4D11A7ED207F8D5C0225968E6
:105EC00092020A435A6070BD036828331970036850
:105ED000187EC007C00F03D15A8BD207F8D5704780
:105EE000588B4007C30F01205840F8E70368283358
:105EF0001970036800201A7E520704D5588B0123BD
:105F00004007C00F5840704703681868C006400F2C
:105F1000043843425841C0B270470368588B80062A
:105F2000800F023843425841C0B270470368187E60
:105F30004007C00F70470368187EC007C00F704746
:105F40000368588BC006C00F70470368187E80072F
:105F5000C00F70470368588B0007C00F7047036875
:105F60001A68D206520F052A05D11A7E920702D46A
:105F70001A7ED207F9D528331878C0B270470000CE
:105F80000368214A30B593422FD0204A93422FD044
:105F90001F4A93422FD01F4A93422FD01E4A93424A
:105FA0002FD01E4A93421FD10E231922012103250F
:105FB00099401B48C024016099082B40AB40FC3538
:105FC0009D4089000918A4000859A843C0259D4098
:105FD0002B0003430B518023DB011A43114B5A80E2
:105FE0005A7852B2002AFBDB30BD09231422DDE7C8
:105FF0000A231522DAE70B231622D7E70C231722F0
:10600000D4E70D231822D1E700080042000C00421B
:10601000001000420014004200180042001C004220
:1060200000E100E0000C0040F8B504000F0016008D
:106030001D00FFF7A5FF2000FFF71CFE1C21BB0081
:106040000B4071072268090C0B43136084232268FC
:106050009375012F1AD11021012E00D008390C4B55
:1060600069431868C00001F02FF807222168024038
:106070008B895203DB04DB0C13438B8122680304FE
:106080009089DB0C400B400318439081F8BDC0465B
:1060900018000020F7B50600019308AB1F780D002B
:1060A0001400FFF757FE3000FFF76AFFC0222405F7
:1060B00092031440BA070C2717433C43C02707221A
:1060C000BF022D0433683D4025431D60019B3168AC
:1060D00013401A0080239B0213434B60F7BD00005E
:1060E000F8B504000F00FFF74BFF2000FFF75FFE3D
:1060F0001422236879001A600C4B25681E68300052
:1061000000F0E2FF0A490400300000F0DDFF7D23CB
:10611000FA215843C90000F0D7FFFF23241AE8688A
:10612000053C1C4098430443EC60F8BD1800002077
:1061300040420F0010B5040000F020FCE06023682E
:1061400020005B699847002808DA00F017FCE36834
:10615000C01AA3689842F2D30120404210BD00004B
:1061600070B50D0009490400160000F09FFA2800E0
:10617000FFF7E0FF002806DB864204D0C1B2200012
:1061800000F04BFBF3E7200070BDC0469AC400004E
:106190000120704710B50368014A1B6A984710BD7B
:1061A000130400000300FC33D9699A69914203D0BB
:1061B000DB69C018007D704701204042FBE710B545
:1061C00004000069FFF756FD22000023FC329361B2
:1061D000D36186229200A4186360A36010BDF020F2
:1061E00001403039484248417047F0231B011940B3
:1061F000802306209B0099420AD00133FF330130EF
:10620000994205D0802302385B00994200D00020DB
:1062100070470F2001400020012903D00239481E99
:106220008141481C704700008923F0B5182685B0CD
:1062300002919B000400C05C330008214343324DAF
:106240001700EB18595600F0B9FE304B0821E05CFE
:1062500033004343EB18595600F0B0FE2C4BE25C80
:106260000393022A09D11133E05CFF2805D00821ED
:106270004643AE19715600F0A1FE8A26B600A05D15
:10628000FF2819D0012100F009FE1822A35D214941
:106290005A43AB56AD18DB0158188B21890060506A
:1062A0001D4901225B188C218900635069688A406E
:1062B0008D21890062501A600122029B1100206921
:1062C000FFF7B2FE39002000FFF78FFF390005000D
:1062D0002000FFF79EFF390006002000FFF77FFF38
:1062E00033000090290020690122FFF793FC0B4B3B
:1062F0002069E25C039BE15CFFF7A9FC2069FFF7E2
:10630000C6FC05B0F0BDC0463CC000002502000040
:1063100027020000184400411444004126020000F6
:10632000802210B504005200002103F09FFB2300DF
:106330000022FC335A6020009A6010BDF7B51D00A2
:1063400008AB1B780400009309AB1B78160001937F
:1063500000234360FA239B008360114B0F00083336
:1063600003601430FFF7DCFF20001D30FF30FFF723
:10637000D7FF89236A469B002761E654094B1278B0
:10638000E554094B2000E2546A46084B1279E25466
:106390008A22293BFF3B9200A3541032A354FEBD36
:1063A0009CC4000025020000260200002702000015
:1063B0000300FC3358689B68C01A01D50130FF30D8
:1063C000704710B5040020001D30FF30FFF7F0FFCC
:1063D0000028F8D12069FFF764FC10BD10B5143017
:1063E000FFF7E6FF10BD0300FC3359689A6891423D
:1063F00004DB5A689868801AFF30704798685B68B9
:10640000C01A0138F9E710B51D30FF30FFF7EBFF78
:1064100010BD10B504000069FFF75FFC002805D02F
:106420002069FFF76AFC2069FFF75CFC2069FFF731
:1064300044FC002820D02069FFF75FFC2200FC32DA
:106440009369D1690133DBB28B4203D09169611842
:10645000087593618A239B00E35CFF2B0CD020001E
:106460001430FFF7C0FF092806DC8B238D229B0028
:106470009200E358A2581A602069FFF739FC0028FF
:106480001AD020001D30FF30FFF792FF002822D0E5
:1064900086239B00E31899685A68914218D08E2190
:1064A0009A684900A218515C9A680132D2B29A6087
:1064B000C9B22069FFF725FC2069FFF703FC00281B
:1064C00005D02069FFF702FC2069FFF7F2FB10BD41
:1064D00001214942ECE72069FFF71FFCECE70000CF
:1064E00070B5040000690D00FFF702FC00283ED1E2
:1064F000FF2686239B00E3185A68996801323240D0
:106500008A4223D1EFF31083DB0710D41E4B5B6864
:10651000DB05DB0DEDD0103B5BB2002B10DA0F2258
:106520001340083B9B08194A9B009B181B68206975
:10653000FFF7DEFB0028DCD02000FFF76AFFD8E77A
:106540009B08C033124A9B009B58F0E75A680132FF
:1065500016409A68964205D08E215A684900A218C2
:1065600055545E602069FFF7D4FB012070BD200008
:106570001D30FF30FFF71CFF0028B9D1290020692A
:10658000FFF7BFFBF1E7C04600ED00E01CED00E0C7
:1065900000E100E0030070B5FC33D9699A6904009A
:1065A00091421AD0DA698218157DDA690132D2B2C5
:1065B000DA618A239B00E35CFF2B0CD020001430AF
:1065C000FFF711FF0A2806DD8C238D229B00920025
:1065D000E358A2581A60280070BD01256D42E8E713
:1065E000F8B50024094B1B68A34200D8F8BD084E3B
:1065F000084FA5003369EA591A4204D0064BEB58FC
:106600009847EB5933610134ECE7C046F0120020A3
:1066100000180040AC1200206812002010B50400E1
:10662000006803F0EBF9200010BD10B5040000680D
:10663000002801D003F0E2F900232360A360636027
:1066400010BD70B504000D000068013103F01CFF9F
:10665000031E01D0012028C470BD036810B50400DA
:10666000002B04D043688B4201D3012010BD2000D1
:10667000FFF7E7FF0028F9D0A368002BF5D12268C7
:106680001370F2E770B50E00110004001500FFF75B
:10669000E4FF002804D12000FFF7C7FF200070BDF1
:1066A000A5603100206803F035FFF7E7002370B5DF
:1066B00004000D00036043608360994207D0080026
:1066C00003F030FF290002002000FFF7DBFF20006D
:1066D00070BD70B5050008000C0003F023FF210019
:1066E00002002800FFF7CEFF70BD10B500230400A4
:1066F0008AB023606360A360080001A900F0D2F9AA
:10670000200001A9FFF7E5FF20000AB010BD70B519
:10671000050000680C0000280FD0096800290AD085
:106720006B68A268934206D303F0F4FEA368AB60E3
:106730000023A36070BD03F061F923682B606368D8
:106740006B60A368AB60002323606360F1E710B562
:106750000B000400884205D00968002904D09A681B
:10676000FFF790FF200010BDFFF75FFFFAE700235F
:1067700010B50400036043608360FFF7E8FF20006A
:1067800010BD10B50400884201D0FFF7C0FF200003
:1067900010BD10B50400002903D0FFF79AFF2000B8
:1067A00010BDFFF742FFFAE7002370B516008CB06A
:1067B0000400036043608360951C081C02F000FF26
:1067C0006DB203AB00932A00330000F057FC0100C8
:1067D0002000FFF7DEFF20000CB070BDF8B504000C
:1067E0000F1E02D100263000F8BD0126002AFAD083
:1067F0008368D5182900FFF730FF0028F2D02368FE
:10680000A2683900981803F085FEA560EBE710B583
:106810008A680968FFF7E2FF10BD07B5002201ABE7
:1068200019705A7019000132FFF7D8FF0EBD10B56C
:106830008A6809680400FFF7D1FF002802D1200010
:10684000FFF7F3FE200010BD70B504000D1E04D14B
:106850002000FFF7EAFE200070BD080003F062FE92
:10686000290002002000FFF7B9FF0028F0D0F2E76E
:1068700010B582688C680023A2420CD3006898424D
:1068800009D00968994206D0121B801803F038FE1F
:1068900043424341DBB2180010BD000083688B42C5
:1068A00003D903685818002B02D100230148037054
:1068B0007047C046F4120020836810B5934208D98F
:1068C00004680968A01803F034FE002801D0001BFA
:1068D00010BD01204042FBE710B50022FFF7ECFF9E
:1068E00010BD0368002010B5834202D0180003F0E9
:1068F0003FF810BDFEE70000034B10B51B68002BEE
:1069000000D0984710BDC046F812002070B50F495E
:106910000F4CA14204D100F0F3F800F0C9F8FEE7F3
:106920000C4D00238D42F6D0CA18E818A24205D3B8
:10693000094B8242EFD00949002204E00068043389
:106940001060F1E704C38B42FCD3E4E700000020B1
:1069500020020020E4C800002002002010130020C4
:1069600010B500F064F8002801D100F055F810BD12
:10697000014B18607047C046F8120020014B1868A0
:106980007047C046FC120020F7B513480122844628
:106990001249134C8E68636805689B0E1340019280
:1069A00088686268019F920E3A4067463F6893424A
:1069B0000ED1BD420CD186420AD35B19FA25486834
:1069C000AD00861B07486B437043000DC018FEBD29
:1069D0003D0013000600E3E7FC12002010E000E099
:1069E00000ED00E05555000070B5041E10D0FFF713
:1069F000CBFF050000F01AF8FFF7C6FF054B401B60
:106A00009842F7D9FA23013C9B00ED18002CF3D1F2
:106A100070BDC046E703000010B5034A1368013398
:106A20001360FFF7B9F810BDFC120020704700207A
:106A30007047F0B50C008BB01600002926D0931ECD
:106A4000222B2DD80A2A05D1002803DA012740423B
:106A500001AD0AE00027FBE7310000F0BBFBCBB241
:106A6000092916D830332B7001352A000028F3D1BC
:106A700001ABAB42F0D02300002F02D02D21631CCC
:106A8000217001A98A4206D800221A7020000BB09A
:106A9000F0BD5733E7E7013A117819700133F0E799
:106AA0000024F3E710B5FFF7C4FF10BD70470000E6
:106AB00010B500F0D5F802F06FFFFFF7F7FF0120E7
:106AC000FFF792FF084C2000FEF730FA2000FEF797
:106AD000CFFAFCF717FBFBF741FF044B002BFAD072
:106AE00000E000BFF7E7C046AC0C0020000000004B
:106AF00010B502F079FF10BD10B502F07FFF10BD98
:106B00001E2270B546484749436893431C3A1343D5
:106B1000436008238C6923438B61434C434B9C8225
:106B20009C8A14439C82DC681442FCD00124404AB5
:106B300014701578254203D055786DB2002DF8DB1E
:106B400001249460547864B2002CFBDB394C54600F
:106B5000547864B2002CFBDB8224E4015480547826
:106B600064B2002CFBDB02249C840E34DD682542D9
:106B7000FCD0314CDC621024DD682542FCD09D8CB9
:106B80002E4C2C439C841024DD682542FCD002242A
:106B90009D8C80262C439C844024DD683542FCD0AB
:106BA000DD682542F9D01024DD682542FCD00024A0
:106BB0009460547864B2002CFBDB214C5460547810
:106BC00064B2002CFBDB1C6A1E4D2C4080251C622D
:106BD0001C6AAC431C62032393601B4B53605378C5
:106BE0005BB2002BFBDB0023FF240B72174A4B72B6
:106BF0008B72CB72164B1A60164B174A1B681168C2
:106C00009A065B01C90E2340520F12020B43134335
:106C1000124A1385802342681343436070BDC04607
:106C200000400041000400400C0600000008004045
:106C3000000C004001050100B905FF7D040A0000B9
:106C400000070300FFFCFFFF03060100006CDC02ED
:106C50001800002024608000206080000040004276
:106C6000FA21314B10B51868890000F02DFA2F4B2E
:106C70000138984256D82E492E4A4860C020136ADF
:106C800000061B021B0A03431362002407238C60C7
:106C90000B608021136A09061B021B0A0B43136257
:106CA000FC22254B196A0A431A62FC22196A9201D6
:106CB0000A431A62A022196AD2020A431A62200009
:106CC0000021013400F0EAF80F2CF8D11B4B1C0016
:106CD0005A7852B2002AFBDB194A5A80194B1A0023
:106CE000597EC9090129FBD0E421C90099803F21BF
:106CF000D970537EDB09012BFBD0C02300205B0140
:106D00001361907000F02EF863785BB2002BFBDB10
:106D10000D4B0E4A6380D379DB09012BFBD0412355
:106D2000537010BDFEE7C04618000020FFFFFF00B3
:106D300010E000E000ED00E000040040000C004026
:106D40001E40000000400042214000000048004278
:106D5000914202D002D98A1AD0407047521A90400C
:106D6000FBE70000164A00B51300517EC90901294E
:106D7000FBD00138042816D81969124A0A400F219D
:106D80001A615A788A4300F095F90308060B03004C
:106D9000110001220A435A7000BD11000322F9E7D5
:106DA00011000222F6E7F02311691B050B430F21A6
:106DB000136153788B43190002230B435370EBE7A5
:106DC00000400042FFFFFFF010B504000E2800D87D
:106DD0000F340121200000F0F1F818231021634343
:106DE000294CE4186156002901D014290DD1274BF4
:106DF0001800DA79D209012AFBD002241A78A243BA
:106E00001A70C379DB09012BFBD021480300427EB5
:106E1000D209012AFBD01F2402692140A2430A4360
:106E200002615A7ED209012AFBD0022219780A4354
:106E30001A705A7ED209012AFBD00222197B0A431A
:106E40001A7301221A765A7ED209012AFBD0022235
:106E5000197B0A431A731A7ED207FCD5588B80B26D
:106E60005A7ED209012AFBD002211A788A431A706D
:106E70005A7ED209012AFBD0064B1A68064B1968C4
:106E8000FFF766FF10BDC0463CC00000004800424E
:106E900000400042200000201C000020182330B5D4
:106EA0001D00040045430820204A5519285601308A
:106EB00014D0032912D808006343D156D31800F028
:106EC000F9F802280E1B5868CB010221184A9B18BA
:106ED0001A1840321170012282405A6030BD586841
:106EE000CB010621124A9B181A1840321170012258
:106EF00082405A609A61F1E75868CB0106210C4A3A
:106F00009B181A1840321170012282405A605A614F
:106F1000E4E75868CB010221054A9B181A18403251
:106F20001170012282409A60D8E7C0463CC0000040
:106F3000004400411823F0B508245843114A13189F
:106F40001C5701341BD0012635005F688356BD40B5
:106F50000D4ADB019A18906805420BD10C00601EA7
:106F60008441D2194032107834400336A400B04333
:106F700020431070044A9B18002901D15D61F0BDC7
:106F80009D61FCE73CC0000000440041182310B59F
:106F90000824434307490020CA181457013408D075
:106FA0005B560549DB015B18186A5368D84001231A
:106FB000184010BD3CC0000000440041182242436C
:106FC000F8B52C4E0300B218127A52B214000132F6
:106FD0000ED0481C00240C280AD800F06BF8071FBC
:106FE0001F1F1F1F1F1F1F0B0B0B0B0001246442D1
:106FF0002000F8BD092905D100211800FFF74EFF38
:107000000024F5E70A2901D10839F6E700240B2905
:10701000EED10A391800FFF741FFE9E71822534380
:10702000F218556801202C00F356134ADB016E0854
:107030009B18C9B204409E19002C0DD00F24303685
:107040003278090122401143C9B25B1931704033D3
:107050001A7810431870D3E732000F2730321678B1
:107060005B19BE433143117040331A7810431870D6
:10707000BEE7C0463CC000000044004130B50400FB
:1070800087B00D00064901A803F01AFA22002B0070
:1070900001A90A9803F014FA0A9807B030BDC04657
:1070A000D0C400000B0010B50100180002F066FC0F
:1070B00010BD000002B4714649084900095C49004E
:1070C0008E4402BC7047C046002243088B4274D3F2
:1070D00003098B425FD3030A8B4244D3030B8B42D9
:1070E00028D3030C8B420DD3FF22090212BA030CE2
:1070F0008B4202D31212090265D0030B8B4219D3C3
:1071000000E0090AC30B8B4201D3CB03C01A5241E2
:10711000830B8B4201D38B03C01A5241430B8B422A
:1071200001D34B03C01A5241030B8B4201D30B0313
:10713000C01A5241C30A8B4201D3CB02C01A52413A
:10714000830A8B4201D38B02C01A5241430A8B42FD
:1071500001D34B02C01A5241030A8B4201D30B02E6
:10716000C01A5241CDD2C3098B4201D3CB01C01A00
:10717000524183098B4201D38B01C01A524143090A
:107180008B4201D34B01C01A524103098B4201D3F8
:107190000B01C01A5241C3088B4201D3CB00C01A65
:1071A000524183088B4201D38B00C01A52414308DD
:1071B0008B4201D34B00C01A5241411A00D2014602
:1071C000524110467047FFE701B5002000F0F0F88B
:1071D00002BDC0460029F7D076E7704703460B434F
:1071E0007FD4002243088B4274D303098B425FD3C0
:1071F000030A8B4244D3030B8B4228D3030C8B42EC
:107200000DD3FF22090212BA030C8B4202D31212D1
:10721000090265D0030B8B4219D300E0090AC30BA6
:107220008B4201D3CB03C01A5241830B8B4201D353
:107230008B03C01A5241430B8B4201D34B03C01A3C
:107240005241030B8B4201D30B03C01A5241C30AB4
:107250008B4201D3CB02C01A5241830A8B4201D325
:107260008B02C01A5241430A8B4201D34B02C01A0F
:107270005241030A8B4201D30B02C01A5241CDD2B4
:10728000C3098B4201D3CB01C01A524183098B42FF
:1072900001D38B01C01A524143098B4201D34B01E8
:1072A000C01A524103098B4201D30B01C01A52414B
:1072B000C3088B4201D3CB00C01A524183088B42D2
:1072C00001D38B00C01A524143088B4201D34B00BB
:1072D000C01A5241411A00D201465241104670472D
:1072E0005DE0CA0F00D04942031000D34042534032
:1072F00000229C4603098B422DD3030A8B4212D3F2
:10730000FC22890112BA030A8B420CD38901921123
:107310008B4208D3890192118B4204D389013AD060
:10732000921100E08909C3098B4201D3CB01C01A35
:10733000524183098B4201D38B01C01A5241430948
:107340008B4201D34B01C01A524103098B4201D336
:107350000B01C01A5241C3088B4201D3CB00C01AA3
:10736000524183088B4201D38B00C01A5241D9D2BB
:1073700043088B4201D34B00C01A5241411A00D23C
:107380000146634652415B10104601D34042002B38
:1073900000D54942704763465B1000D3404201B5B7
:1073A000002000F005F802BD0029F8D016E770476C
:1073B0007047C0468446101C62468C46191C6346C2
:1073C00000E0C0461FB501F01BFA002801D40021DF
:1073D000C8421FBD10B501F073F94042013010BD25
:1073E00010B501F00DFA002801DB002010BD0120CE
:1073F00010BDC04610B501F003FA002801DD0020E1
:1074000010BD012010BDC04610B501F095F900284F
:1074100001DC002010BD012010BDC04610B501F0F8
:107420008BF9002801DA002010BD012010BDC046F4
:10743000002B15D1002A13D1002906DB01DC00281E
:1074400006D00020C043410802E080210906002048
:1074500007B4024801A14018029003BD55FFFFFF89
:1074600003B4684601B5029800F062F8019B9E469D
:1074700002B00CBC7047C046F0B5CE464746150476
:107480002D0C2E0080B50704140C3F0C9946030CFC
:107490007E435D43674363437F19340CE4199C4684
:1074A000A54203D980235B029846C4444B4643431C
:1074B0005143250C36046544360C2404A4195B1989
:1074C000591820000CBC90469946F0BDD0B5012655
:1074D00002000B00134F7642B6185F4104001248B9
:1074E000874219D9520504D08023E40AE4021B0123
:1074F0001C43080001F0F8FF00220C4B01F0E8F9F2
:1075000006000F00200002F029F832003B0000F0D6
:10751000B9FA02F0A7F8D0BD8742EAD1B01CE1D891
:10752000E7E7C046FFFF1F00FFFF3F000000F041FC
:10753000F0B583B016001F000090019102F034F9FD
:1075400004000D0002000B0030003900FFF794FF2B
:10755000009A019B121A8B41089920000A604B6027
:10756000290003B0F0BDC046F8B557464E46454623
:10757000DE464402E0B546008846640A360EC70F70
:10758000002E63D0FF2E24D08023E400DB041C43B4
:10759000002399469B467F3E434642465D02D20FFA
:1075A0005B006D0A1B0E9046924665D0FF2B55D0AE
:1075B00080220021ED00D2047F3B1543F61A43469A
:1075C0004A467B400F2A00D98DE06D4892008258D0
:1075D0009746002C54D108239946063BFF269B462C
:1075E000DAE70025534602291BD0032900D1BFE06A
:1075F000012928D030007F30002820DD6A0704D020
:107600000F222A40042A00D004352A0103D5300075
:107610005C4A80301540FE2803DCAC01640AC2B22B
:1076200001E0FF2200246402D205600ADB07104358
:1076300018433CBC90469946A246AB46F8BD012291
:10764000101A1B287CDD00220024ECE7002C1DD141
:1076500004239946033B00269B469DE7FF3E002DF1
:1076600020D1022143464A467B400A430F2AD8D8FC
:107670004548920082589746002D19D10121F1E723
:107680000C239946093BFF269B4685E7200002F024
:107690006DF87626431F9C4000237642361A9946A1
:1076A0009B4679E74A4603231A439146032186E71E
:1076B000280002F05BF8431F36189D407636002103
:1076C0007DE780240023E403FF22ACE7002580232C
:1076D000DB031C4228D01D4226D12B435C02640AE6
:1076E0004346FF229FE762016C01A24224D21B2184
:1076F0000025013E012710006D005200002801DB2B
:10770000944201D8121B3D4301390029F3D11400E2
:10771000621E944125436DE7BA46594625005346FB
:10772000022900D061E77CE78023DB031C4364026D
:10773000640A3B00FF2276E7121B1A210125D9E7D4
:107740009E362A00B5402C00C240651EAC41144351
:10775000620704D00F222240042A00D004346201C0
:1077600003D4A401640A00225DE7012200245AE741
:107770008024E4032C436402640AFF2253E7C046DA
:10778000DCC40000FFFFFFF71CC50000F0B54E464B
:1077900057464546DE46E0B543025B0A450083B0E6
:1077A0000F1C99462D0EC60F002D57D0FF2D24D04B
:1077B0008020DB00C0041843002381469A469B4684
:1077C0007F3D7C027A00FB0F640A120E984623D09C
:1077D000FF2A4BD0E30080240020E4047F3A1C43BE
:1077E000AD186B1C47460193534677403A000F2B68
:1077F00048D87D499B00CB589F46002B00D085E0A0
:1078000008339A46063B9B467C027A00FB0FFF2515
:10781000640A120E9846DBD1002C00D090E052464C
:1078200001231A4392460120DBE74C4658461700D5
:10783000022824D0032800D1CFE000220023012811
:107840004DD15802D205400AFF071043384303B018
:107850003CBC90469946A246AB46F0BD002B5BD19E
:1078600004239A46033B00259B46AAE7FF35002CDC
:1078700060D1524602231A4392460220B1E7FF220A
:107880000023DEE74B461B0C9C464B462604360C79
:10789000180461463300220C6446000C43434E43F7
:1078A0005043544380191A0C1218964203D9802170
:1078B00049028C4664441B041B0C1004C01883014D
:1078C0005E1EB341800E1843130C1B199B0103432A
:1078D0001C00230179D5012362081C401443019A3E
:1078E0007F32002A4DDD630704D00F232340042B91
:1078F00000D00434230103D53C4B019A1C40803254
:10790000FE2ABCDCA3015B0AD2B29AE70C239A469A
:10791000093BFF259B4654E7180001F027FF4A4624
:10792000431F76259A4000236D4291462D1A9A46B0
:107930009B4646E7524603231A439246032050E7EC
:10794000200001F013FF431F2D1A9C40763D0020BC
:1079500047E780230027DB03FF2272E7424666E702
:107960004C463200584662E780234A46DB031A42FF
:1079700022D01C4220D123435B025B0A4746FF22F0
:107980005FE701239A1A1B2A21DC23000199D340C7
:107990009E318C401A0023005C1EA34113435A07FA
:1079A00004D00F221A40042A00D004335A0111D403
:1079B0009B015B0A002244E780234A46DB03134312
:1079C0005B025B0A3700FF223BE7019587E7002255
:1079D000002336E70122002333E78023DB03234320
:1079E0005B025B0AFF222CE75CC50000FFFFFFF78C
:1079F00070B500283DD0C317C5185D40C40F2800DE
:107A000001F0B4FE9E22121A962A07DCD2B2082890
:107A100033DD083885406802400A23E0992A0BDDEF
:107A2000052329001B1AD94003001B339D402B005E
:107A30005D1EAB4119430D00052801DD431F9D402C
:107A40002B000F490B406E0709D00F263540042D3F
:107A500005D004335D0102D59F220B40121A9B0111
:107A6000580AD2B24002D205400AE407104320432C
:107A700070BD002400220020F4E76802400AF1E70C
:107A8000FFFFFFFBF0B54F464646D6460C00090304
:107A9000C0B5490A470F5E0039431F03DB0F9C4600
:107AA00065007B0A570F1F436D0DE40F760DA1464D
:107AB000C000B846D200AB1B64457BD0002B5FDD15
:107AC000002E00D0A4E03E00164300D112E15E1E5D
:107AD000002E00D09EE1871A4346B842804101251E
